:020000040000fa
:080000000001040000000000f3
:020000040000fa
:0400080020020000d2
:020000040000fa
:04000c0020020000ce
:020000040000fa
:0400100020020000ca
:020000040000fa
:0400140020020000c6
:020000040000fa
:0400180020020000c2
:020000040000fa
:04001c0020020000be
:020000040000fa
:0400200020020000ba
:020000040000fa
:0400240020020000b6
:020000040000fa
:0400280020020000b2
:020000040000fa
:04002c0020020000ae
:020000040000fa
:0400300020020000aa
:020000040000fa
:0400340020020000a6
:020000040000fa
:0400380020020000a2
:020000040000fa
:04003c00200200009e
:020000040000fa
:04004000200200009a
:020000040000fa
:040044002002000096
:020000040000fa
:040048002002000092
:020000040000fa
:04004c00200200008e
:020000040000fa
:04005000200200008a
:020000040000fa
:040054002002000086
:020000040000fa
:040058002002000082
:020000040000fa
:04005c00200200007e
:020000040000fa
:04006000200200007a
:020000040000fa
:040064002002000076
:020000040000fa
:040068002002000072
:020000040000fa
:04006c00200200006e
:020000040000fa
:04007000200200006a
:020000040000fa
:040074002002000066
:020000040000fa
:040078002002000062
:020000040000fa
:04007c00200200005e
:020000040000fa
:04008000200200005a
:020000040000fa
:040084002002000056
:020000040000fa
:040088002002000052
:020000040000fa
:04008c00200200004e
:020000040000fa
:04009000200200004a
:020000040000fa
:040094002002000046
:020000040000fa
:040098002002000042
:020000040000fa
:04009c00200200003e
:020000040000fa
:0400a000200200003a
:020000040000fa
:0400a4002002000036
:020000040000fa
:0400a8002002000032
:020000040000fa
:0400ac00200200002e
:020000040000fa
:0400b000200200002a
:020000040000fa
:0400b4002002000026
:020000040000fa
:0400b8002002000022
:020000040000fa
:0400bc00200200001e
:020000040000fa
:0400c000200200001a
:020000040000fa
:0400c4002002000016
:020000040000fa
:0400c8002002000012
:020000040000fa
:0400cc00200200000e
:020000040000fa
:0400d000200200000a
:020000040000fa
:0400d4002002000006
:020000040000fa
:0400d8002002000002
:020000040000fa
:0400dc0020020000fe
:020000040000fa
:0400e00020020000fa
:020000040000fa
:0400e40020020000f6
:020000040000fa
:0400e80020020000f2
:020000040000fa
:0400ec0020020000ee
:020000040000fa
:0400f00020020000ea
:020000040000fa
:0400f40020020000e6
:020000040000fa
:0400f80020020000e2
:020000040000fa
:0400fc0020020000de
:020000040000fa
:0401000020020000d9
:020000040000fa
:0401040020020000d5
:020000040000fa
:0401080020020000d1
:020000040000fa
:04010c0020020000cd
:020000040000fa
:0401100020020000c9
:020000040000fa
:0401140020020000c5
:020000040000fa
:0401180020020000c1
:020000040000fa
:04011c0020020000bd
:020000040000fa
:0401200020020000b9
:020000040000fa
:0401240020020000b5
:020000040000fa
:0401280020020000b1
:020000040000fa
:04012c0020020000ad
:020000040000fa
:0401300020020000a9
:020000040000fa
:0401340020020000a5
:020000040000fa
:0401380020020000a1
:020000040000fa
:04013c00200200009d
:020000040000fa
:040140002002000099
:020000040000fa
:040144002002000095
:020000040000fa
:040148002002000091
:020000040000fa
:04014c00200200008d
:020000040000fa
:040150002002000089
:020000040000fa
:040154002002000085
:020000040000fa
:040158002002000081
:020000040000fa
:04015c00200200007d
:020000040000fa
:040160002002000079
:020000040000fa
:040164002002000075
:020000040000fa
:040168002002000071
:020000040000fa
:04016c00200200006d
:020000040000fa
:040170002002000069
:020000040000fa
:040174002002000065
:020000040000fa
:040178002002000061
:020000040000fa
:04017c00200200005d
:020000040000fa
:040180002002000059
:020000040000fa
:040184002002000055
:020000040000fa
:040188002002000051
:020000040000fa
:04018c00200200004d
:020000040000fa
:040190002002000049
:020000040000fa
:040194002002000045
:020000040000fa
:040198002002000041
:020000040000fa
:04019c00200200003d
:020000040000fa
:0401a0002002000039
:020000040000fa
:0401a4002002000035
:020000040000fa
:0401a8002002000031
:020000040000fa
:0401ac00200200002d
:020000040000fa
:0401b0002002000029
:020000040000fa
:0401b4002002000025
:020000040000fa
:0401b8002002000021
:020000040000fa
:0401bc00200200001d
:020000040000fa
:0401c0002002000019
:020000040000fa
:0401c4002002000015
:020000040000fa
:0401c8002002000011
:020000040000fa
:0401cc00200200000d
:020000040000fa
:0401d0002002000009
:020000040000fa
:0401d4002002000005
:020000040000fa
:0401d8002002000001
:020000040000fa
:0401dc0020020000fd
:020000040000fa
:0401e00020020000f9
:020000040000fa
:0401e40020020000f5
:020000040000fa
:0401e80020020000f1
:020000040000fa
:0401ec0020020000ed
:020000040000fa
:0401f00020020000e9
:020000040000fa
:0401f40020020000e5
:020000040000fa
:0401f80020020000e1
:020000040000fa
:0401fc0020020000dd
:020000040000fa
:100200004f9620000e7f24000e01880000000000a1
:10021000000020000000e000020032000001200089
:100220002002880014000700fc0007000000e00026
:1002300003003a00c05322000100200002003700f2
:100240000000200001002000810f7000010032003a
:1002500014000700000020000000e000020032004f
:1002600000000200000000001a220200000000004e
:100270000040da000000fe004440a900c034200025
:100280000000e00003003200002020009001880000
:100290004440a800000006008a1f78008b1f7800e9
:1002a00000000600a1028800800478000000eb0036
:1002b0001f003700e284440054a0b4009905ba003e
:1002c000e284440054a0b4009906ba00e2844400d9
:1002d00054a0b4000006eb00476fde00fd07b2003b
:1002e000ae018800636ce10003003a00eaff0700fa
:1002f0000000eb000e003700606ce10008003a00df
:10030000004deb000a05e800020039003420ec0043
:100310000af0a0008b05e900f9ff3e000400370059
:100320006168e100010032000086eb000b0007006d
:1003300019c7ba001905ba000e04e00003003a001c
:100340000a00e000dbff3a0000000600fe07b200f2
:10035000ae0288008a047800f5ff37000cd0a300b5
:10036000e20f4d001c00390089027800354dba00bb
:100370000a05e800020039003420ec000af0a00071
:100380008b05e9000f003200254dba000a05e80090
:10039000020039003420ec000af0a0008b05e900cf
:1003a000080032000c00e0000600320015cdba0053
:1003b0000a05e800020039003420ec000af0a00031
:1003c0008b05e9008984e80054a0b4000b00e0002c
:1003d000e2ff3a00000006009902ba00055d7800cd
:1003e0008b05e900f7ff3200c82ade00055d7800c2
:1003f0008b05e900f3ff32000c00e000f1ff320052
:1004000019ddba00eeff3700fe21040000000000f5
:100410000c22040000000000300304000000000073
:100420004a030400000000007803040000000000fc
:10043000f80d0400000000000000040000000000af
:100440000040da000000fe000a00fa00110020005f
:10045000b1bf9f00c0bf9f006a8057009906070088
:100460004fb897000080fa00000006000a00fa006a
:10047000e20f500034003e00004b8000e10f5000be
:1004800003003200e20f500011003a000c00370068
:10049000833920000300e00001003a000040da0048
:1004a0009803e20002003500a023ef0099e3a800c2
:1004b0009b43ab000d003a009b43a8000b003700a4
:1004c000e33a20000300e00001003a000040da00b7
:1004d000ae03e20002003500b623ef00afe3a80050
:1004e000b143ab0001003a00b143a800820178009b
:1004f0000b0037003102fb00e10f500004003a000e
:100500009b23ab00feff3a00e41c88000300370089
:10051000b123ab00feff3a00941d88008301e9007f
:100520000300e000f3ff3a00e10f500003003a003f
:100530009b03ab00feff32000b003700b103ab00a2
:10054000feff32000800370033002000b3bf9f00d9
:10055000c0bf9f00d1bf9f00e2bf9f006a805700cd
:100560005a0607006fb99700020078000080fa0071
:10057000000006000a00fa0051002000b1bf9f00f1
:10058000c0bf9f006a805700520607005fb89700ff
:100590000080fa0000000600889fbe0080047800fa
:1005a000104b80000000e00004003a000e0007003d
:1005b0000084eb000000e00008003500184b8000cc
:1005c0000900e000050032000900440006000700b1
:1005d0000000e00001003d000084eb00080078000e
:1005e0004f04be0000000600800078000100e0001b
:1005f00003003a0000002000104b880000000500b6
:100600000080eb0002002000828f500002003e00bc
:10061000114b88000000eb00000006000000050000
:1006200000017800820178003204e000fdff3a000a
:1006300003017800b1417800035978000304e00019
:10064000fcff3a000000060000017800b14178008c
:10065000035978000304e000fcff3a0000000600a4
:10066000889fbe00800478000203be000104780069
:100670006149b800898fd2008381d20008027800d6
:100680000600be0015060700088044004f04be00a7
:1006900000000600881f7800020478000801780036
:1006a000f4010700080040004f0478000000060035
:1006b0000000fa00881f7800000478006a82570062
:1006c000bfb997000801780001332000a034200052
:1006d000160007000000e000020035008040eb003b
:1006e000017478004f0478000080fa0000000600d2
:1006f000889fbe00000478000203be0081047800d9
:100700000802780089017800120020000600be006f
:10071000f6030700890f5000010032000004eb00cf
:10072000080078004f04be00000006006800fa00d0
:10073000889fbe008a9fbe00800478000104780074
:1007400082057800030578008400780000f92f0006
:100750000f004000e3030700d98f9f00fb8f9f002d
:100760000000eb00a09f9f00e88f9f009a84fb0091
:100770000904fb008904ea00cf4cde00500220008f
:10078000800f54000d003200e18f54000b003a003e
:10079000090178008a0078007f889700df89970038
:1007a00003000100f08f9f000000e0009500320080
:1007b0002f9897000000e800a09f9f0009054500c2
:1007c00050022000800f5400040032000800e000b6
:1007d000e6ff3a002f9897008b0037000000eb00ef
:1007e000809f9f00f0979f00e0979f00d0979f0009
:1007f000c0979f00b0979f000700370061942000ca
:100800000100500000004000a1932000610078002a
:10081000cf98970001007000c09f9f000a047800e5
:1008200008057800ba4478008900fb006094200035
:10083000970107000000e000f0ff3a00a1c2b300fa
:1008400081cf54000e003a008f8897000180e900a4
:10085000808f9f0010007800b09f9f000000e00094
:1008600005003d000000ea00b09f9f004f989700f0
:100870000020a000c09f9f000804e800100037007f
:10088000b09f9f00880078000000eb000500370053
:10089000f3ff2700830f5000020032006a02b90004
:1008a0000400410001047800880078003101fb0059
:1008b0000203b100e90f5100f5ff3600b09f9f0021
:1008c000e0c2b300984f1000020032000080eb003d
:1008d00019003700a0c2b300d84f100007003a003b
:1008e0008f8897000180e900808f9f0010007800ba
:1008f000909f9f000804e800100037000000eb0004
:10090000909f9f008800780005003700f3ff2700c4
:10091000830f5000020032006a02b9000400410057
:1009200001047800880078003101fb000203b10067
:10093000e90f5100f5ff3600909f9f009844780022
:100940008900fb0020932000510107000000e00017
:10095000020032000804e800010037008044eb0088
:10096000a97f9f0080c6b30080cf540006003a00e4
:1009700098cf140010003a0066405000a07f9f00fe
:100980000804e8000c003700c0c6b30080cf540054
:1009900009003a0098cf140007003a006740400071
:1009a000d84f100002003a006e405000010037009e
:1009b00010c7b300a07f9f001801fb00c3fb2f00ee
:1009c0008f81410001f92f008f80400020f92f0016
:1009d0000f004000150007000000e00009003a0089
:1009e000c1fb2f008f80400020f92f000f00400036
:1009f000620207000000e000020035000805e80080
:100a00005aff37000080eb004f05be004f04be00c8
:100a10000080fa00000006000302780082017800de
:100a2000010178008137200040ff3700889fbe0019
:100a30008a9fbe00e4c6b300844f5100be0032005e
:100a400010003c006b425200844f510018003200ed
:100a500005003c0054c2b300844f5100f600320040
:100a600084c5b3000f00370044c6b300844f510063
:100a70001400320065424200844f5100f1003a00f8
:100a80001000370004c7b300844f5100dd0032006e
:100a90005600350065424200844f51005300320039
:100aa00063424200844f5100e6003a004f00370095
:100ab0001181e90082087800a008900012417800b6
:100ac000de003700006a9000c5c6b300854f5200b3
:100ad00007003a009102780064825200840878008e
:100ae0001402be004fabde0086037800140037000e
:100af00015c7b300854f520003003a001104780077
:100b00006802540005003700a5c6b300854f5200a7
:100b100006003a0091047800688254008408780046
:100b20005403be004402be00050037001182e900f4
:100b30008408780014027800cfa2de00612bb9008f
:100b40000498be000690be008068900088c6b3007e
:100b500088cf50000d00320028c6b30088cf500067
:100b600004003a000402fb00cfa2de00612bb900b2
:100b70000800370048c7b30088cf50000300320098
:100b80006644440088cf500004003a00cfa2de0043
:100b9000612bb9000498be000690be003002be0072
:100ba0002003be00a0089000e00f5200e08f5a0022
:100bb000e00f5b00e08f5b0002003d00d4c2b30099
:100bc00008003700301290000418a3000200320021
:100bd000b4c2b300030037000408a3005100320080
:100be00004c2b30084f178004c003700006a900022
:100bf000c5c6b300854f520008003a0011057800c1
:100c000064025500840878001404be006055b800e2
:100c10000802be000a03be001400370015c7b30067
:100c2000854f520003003a00910478006882540016
:100c300005003700a5c6b300854f520006003a00f4
:100c40001105780068025500840878005403be003e
:100c50004402be00050037001182e90084087800d4
:100c6000140278008002eb006033b8000498be00e4
:100c70000690be008068900088c6b30088cf500000
:100c80000d00320028c6b30088cf500004003a009f
:100c90000482fb008002eb006033b80008003700dc
:100ca00048c7b30088cf50000300320066444400b8
:100cb00088cf500004003a008002eb006033b80097
:100cc0000498be000690be00b01090000138a3004a
:100cd000140032003002be002003be00e00f5200bc
:100ce000e08f5a00e00f5b00e08f5b000d003200e8
:100cf00081c7b300814f51000300320081c5b300aa
:100d0000814f510007003a00a008900004c3b300cf
:100d100084f178008100e80082f178008100e80029
:100d200021089800a008900081814100730098007c
:100d3000824078003e00370080699000c4c6b3004e
:100d40001181e90084cf5100220032000a003c00ea
:100d50006442520084cf51002500320004c2e800f2
:100d600084cf5100130032006842520084cf5100fa
:100d70001e003a000a00370044c7b30084cf510078
:100d80001b0032006642420084cf5100180032003e
:100d90006942520084cf510014003a000500370028
:100da00082087800920078002060900080487800e7
:100db0002c00370082087800920078001012900012
:100dc000cfa2de00612bb9008498be008690be00e1
:100dd00024003700820878009200780010119000fb
:100de000cf91de008288be001e0037001181e9002d
:100df0008208780092007800101090008008780037
:100e0000180037001181e90082087800120278008a
:100e1000cfa2de00612bb9000498be000690be0090
:100e2000a0089000818141007300980081c7b30041
:100e3000230007000b003700a008900082f1780023
:100e400006003700a0089000818141000204e00004
:100e500001003a0052c2b300824978008100e800e4
:100e6000210898000000eb004f05be004f04be00b3
:100e7000000006008001780002003700b1597800b8
:100e80000201e9000200e000fcff3a000000060059
:100e9000020037000304e000060032000001780081
:100ea00002007800b041780081cf5100f9ff3a008c
:100eb000010037000001eb0002007800000006008e
:100ec000fc874700889fbe008a9fbe008c9fbe00a3
:100ed0008e1f78000006780080c5b30080cf5000d8
:100ee0000a0032007740400080cf50000a003200f4
:100ef0006940400080cf50000b003200109220006b
:100f000080bf9f00ae0020000a0037000291200041
:100f100082bf9f00060037001392200083bf9f000e
:100f20008e002000030037001492200084bf9f0031
:100f30000e0120003c02be002c03be000605be00d0
:100f40000404be0040c6b30080cf5000030032004e
:100f50006540400080cf50000b003a00e00f520087
:100f6000e08f5a00e00f5b00e08f5b0006003d0061
:100f70006000b8006011b800040450008584580077
:100f80000605590087855900e80f57000400320014
:100f900040002000f00f570038003a0001003700f1
:100fa00030002000e00f5400e08f5c00e00f5d0097
:100fb000e08f5d0004003a008c1090008d0120004d
:100fc0000100e000060032008e00e9008880600029
:100fd0008fba9700e5c07800f1ef9f007d012000f7
:100fe000800078008100e900050033008b05d10006
:100ff0000a85d3008984d3000884d300f9ff370021
:10100000089ebe000a96be00120037008d06e90059
:101010008e00e900848060000fb99700e2c178007b
:1010200082fd2f000f01410003f17e008000780057
:101030008100e900050033008783d1000683d300d7
:101040008582d3000482d300f9ff3700049ebe00de
:101050000696be003c02be002c03be00e00f52000c
:10106000e08f5a00e00f5b00e08f5b008b003400e4
:101070000d00e000e5ff3c00880037000c689000a0
:1010800081c6b300814f50000b00320006003c00c7
:101090000004e00008003200e6c05000814f50001c
:1010a0004e003a0004003700c1c6b300814f500023
:1010b0004a003a00210037000800e00004003a002e
:1010c0000c1090008d0120000000e00006003200ae
:1010d000110009000e84d8000fb99700e2c0780013
:1010e000f1ef9f007d012000110009000e84d8005f
:1010f0000a003700110009000e04d8008d06e9002f
:101100000e81b900020454008fb8970061417c0041
:1011100081fd2f008f80400082f07e000004780067
:101120000800e000020032000d00e000f1ff3c008a
:10113000cfc4de00614db90025003700e00f540038
:10114000e08f5c0004003a000c1090008d0120003c
:101150000000e000070032006171b9000800be0025
:10116000c10307008fb99700e3417800f3ef9f00b8
:101170007d0120006171b9000800be00aa030700cc
:101180000b0037006171b9000800be00970307002b
:101190008d06e90000f1b900020454000fba97006f
:1011a000e4427c0084fd2f000f02420005f27e0025
:1011b0000004be00e00f5000e08f58000200320033
:1011c0000d00e000efff3c004fcdde008a05780007
:1011d000089ebe000a96be0030003700e00f5400a3
:1011e000e08f5c00e00f5d00e08f5d0004003a00de
:1011f0000c1090008d0120000000e000090032007a
:101200006172b900612bb9000800be000a01be007e
:101210003e0407000fba970064427800f4ef9f0085
:101220007d0120006172b900612bb9000800be0089
:101230000a01be002e0407000d0037006172b900dc
:10124000612bb9000800be000a01be00330407008c
:101250008d06e90000f2b900040454008fba97002b
:1012600065427c0085fd2f008f82420084f27e0063
:10127000009ebe000296be003c04be002c05be00cf
:10128000e00f5400e08f5c00e00f5d00e08f5d0038
:10129000020034000d00e000e8ff3c00e80f5700ba
:1012a00010003a003c1090000038a3000d003200fe
:1012b000f78f560006003e0085fd2f008f8242000a
:1012c000e5c07e0000c3b30080cf500005003200af
:1012d0008d06e90002c3b30081fd2f008f8040001e
:1012e00082f07e0078811600420e98007c0090000b
:1012f00083fd2f008f8141008d804100ddfe0700be
:101300004c0890008c109000810f500006003d00aa
:1013100000805000300e98003c1090000040a1006a
:10132000301698000f0037000100e0000d003d006e
:10133000bc109000f4806000f08f500009003a006b
:101340002c119000ac089000810051003c099000e5
:1013500082805000008050004240a900010034000b
:10136000300e98004f0778004f06be004f05be00b4
:101370004f04be00cf01b100000006000400fa00d7
:10138000889fbe008a9fbe008c1f780000047800f2
:1013900001067800a814900028089000808454006a
:1013a00038089000808454004808900080845400dd
:1013b000580890008084540068089000808454008d
:1013c00078089000808454000002220090bf9f00a3
:1013d00000032300a0bf9f00381090000028a30046
:1013e00015003a000900e0001300340009057800f8
:1013f0008a057800e20f5500010036002b0020001e
:10140000c80190000b017800ee8057006800900042
:1014100003000100600498000000e000aa00320010
:10142000181090000b004000101498000b05550098
:101430004240a900eeff3c00280990000200e000b5
:101440000c003400c80190008c0078006800900007
:1014500003000100600498008080eb000000e000c1
:101460009a003200981090002808900000804000f8
:1014700010149800380d90000a00e00011003400ac
:101480008a057800e20f5500010036002b0020008d
:10149000c80190000b017800ec80570068009000b4
:1014a00003000100600498000000e00086003200a4
:1014b000181090000b004000101498000b05550008
:1014c000edff370008699000c808900050c6b300cf
:1014d000804f510008003a000100e0001500340080
:1014e0005802900008099000980990006800900048
:1014f00004000100070037000100e0000d00340087
:10150000c801900001017800f80090006800900088
:1015100003000100600498008080eb000000e00000
:101520006a00320098109000480890000080400047
:1015300010149800580d90000a00e00011003400cb
:101540008a057800e20f5500010036002b002000cc
:10155000c80190000b017800ec80570068009000f3
:1015600003000100600498000000e0005600320013
:10157000181090000b004000101498000b05550047
:10158000edff3700086990006808900051c6b3006d
:10159000814f51000d003a000000e0001c003400b3
:1015a00078019000c8089000010141006111b80065
:1015b000828fd2008381d200580290008000780090
:1015c0006800900004000100090037000000e000fe
:1015d0000f00340078019000c8089000810041009d
:1015e000c80190000001780068009000030001002d
:1015f000600498008080eb000000e00033003200bf
:101600009810900068089000008040001014980026
:10161000780d90000a00e000110034008a0578007f
:10162000e20f5500010036002b002000c801900099
:101630000b017800ec805700680090000300010067
:10164000600498000000e0001f00320018109000b5
:101650000b004000101498000b055500edff3700fb
:10166000381090008000eb000028a3001700320023
:101670000900e0001500340009057800e28f5400ed
:10168000010036002a002000c80190000a017800fd
:10169000ee8057006800900003000100600498008d
:1016a0000000e00008003200181090000a0040001e
:1016b000101498008a8454004240a900eeff3c00b8
:1016c0008000eb00010037008080eb000100780013
:1016d0004f0678004f05be004f04be000080fa00a0
:1016e000000006000108780000000600e6874700b9
:1016f000889fbe008a9fbe008c9fbe008e1f780010
:1017000082bf9f0004047800029ab900f4b79f00da
:101710000400e000590032000fb997000200e00019
:10172000570032000006be0004077800c800900091
:1017300068009000808f5000040039000800780095
:10174000910007000000e0003b0035000040200051
:10175000180060000a0032008e017800a20020000c
:101760000c00be00060207000005be0000807500e8
:10177000070032008c0455008904e800050037009a
:101780008e0478000a0020000b00200001003700c2
:101790008e0478004801900068009000020050001c
:1017a000890f500003003100800478000a002000f7
:1017b0000b0020006111b800828fd2008381d2001b
:1017c000090278000c00be00c40107000907570099
:1017d0004800900009004000400498000a85750008
:1017e00004003200080078002c0007000000e00030
:1017f00011003a000e00e0000f0032006148b8000e
:10180000808fd2008180d2000000780000f0a1001b
:101810008c01d0000001d000028641004220a800c7
:1018200081864e004200a9004220ae004200a8007e
:101830000c86d300bdff3700008020001800600038
:1018400002003200080078001400070000c02000e9
:101850001800600002003200c80190006304980084
:101860007fb097000e0750000fb9970011000900d4
:101870000287d80080017800010037008001eb006a
:10188000030078004f0778004f06be004f05be00ea
:101890004f04be006f00b10000000600889fbe002c
:1018a000000478000800e0000f003a008004eb001c
:1018b000090478008800d00080882000610078004a
:1018c0000000e00004003200f4ff07000000e00028
:1018d00001003d008084eb000804e800e80f54009c
:1018e000f4ff3a00250037000000220018006000d5
:1018f0008004eb0021003200a80490000f003700a4
:1019000009015100384090000000fb008900780078
:10191000d6fa07000000e00007003c002800900015
:101920004004980060049800500c98001890a000a3
:101930008084eb001100370080844400480190004f
:10194000828f5400eeff3900280090004004980078
:101950009800780002c020000281600001003a0077
:101960003800900001e8a3000200320060049800f3
:1019700001003700500c98008004eb00090078004b
:101980004f04be0000000600889fbe008a1f78003a
:1019900000047800c8009000680190000000eb008f
:1019a000828f50003c003900180078002200290086
:1019b00002016000e20f5100070032000120200008
:1019c0000000e0000100350001202400008c7000c0
:1019d0000080eb00300037000200260002006000ab
:1019e000820f500009003a0038009000808f5000ac
:1019f0000600390008007800a8ff07008000780082
:101a00000080eb000100e00023003a001805780098
:101a100000c020000000650018003a00a8049000f3
:101a20006002200008004000808f540013003a003c
:101a300000202000ef000700200498000000e000d4
:101a400005003a0029049800490498008904e80038
:101a500039049800080037000a60a0000a0c7800da
:101a6000400498000120200080804000310498004c
:101a7000400c9800500c98000c00070028009000c3
:101a80005004980038009000600498000000260080
:101a9000180c70000000eb004f0578004f04be00ea
:101aa0000000060080df200061003700881f7800fa
:101ab000c89520001804e00003003a00f9ff070071
:101ac00020c0b300004c78004f04780000000600ee
:101ad000889fbe0000047800080078006fff0700b0
:101ae000800478000004200018006000020032002a
:101af000280090005a0007000000eb002004980026
:101b0000384090000004e000050035000000fb00b4
:101b10004dfa07000000e000010032008084eb0075
:101b2000181090000000e0000800320091fa070051
:101b30000000e000010032008084eb0018109000eb
:101b4000470007000000eb00101498000008200078
:101b500018006000150032000001eb006000b800c2
:101b6000838820000202d00063027a00880f5200ae
:101b700005003a00000040008180480000804100dc
:101b80000008eb000600370061004000e0804800dc
:101b90000201e800e80f5000e08f5800f0ff3a0023
:101ba000080078002e0007000e003700000c7800b7
:101bb00000c0eb00304498006002200008004000a4
:101bc000200498004004980050049800400c9800ad
:101bd00060049800500c980070049800760044004f
:101be000000c9800090078004f04be0000000600b9
:101bf000881f78000004eb006140b800e2ff2f006e
:101c0000f3ff2f001b0107006289200062007800ab
:101c10000000e00001003200adff07000804e8000a
:101c2000e80f5400f4ff3a004f047800000006006b
:101c3000010020000100e0000800320001008000e7
:101c40000100e000050032008100e9000100880089
:101c50008100d0000200800000b178000000060082
:101c60000000e0002f003200c0017800e38f510037
:101c70002c0036000308a3002a003a00d14a800055
:101c80000100e00002003200810f5000040031002a
:101c900011009800d04a88001600370082007800b2
:101ca000110190000200e00002003200800f51009c
:101cb000faff39001102780084824000850f50003d
:101cc00018003900808f520003003a008308420058
:101cd00001007800070037000200e0000300320036
:101ce00083014000830f51000e003900120098005c
:101cf00090009800900090000100e0000900320080
:101d000010014000828f500006003a0082952000aa
:101d10000009eb00100178001108410091009000cb
:101d20001100980000000600889fbe0000047800a3
:101d3000c14a80000100e00002003200010078008a
:101d40000d003700d14a8000a09520000400370024
:101d5000910f5400250036000180e80091009000aa
:101d60000100e000faff3a0010003700920f540023
:101d70001e0036000280e800100178000200e0003a
:101d8000faff3a0011017800d14a8000a0952000a6
:101d900004003700910f5400140036000180e80061
:101da00091009000828f5000faff3a00f94a8000bb
:101db000888f540001003100880478000900780001
:101dc000360007000000e00004003a00888f54004d
:101dd000050032008904d100f5ff370009187800aa
:101de0009fff0700d2ff37000000eb004f04be004a
:101df00000000600881f7800630440000800a1006e
:101e00008000eb00800f540021003600e30f5400e7
:101e100001003e004800200008007800c2ff0700d3
:101e20008000eb000000e000190032009000780014
:101e30009101780064815100880f51000300310046
:101e40001101900002087800070037000881400067
:101e500002087800910190001301980010017800a9
:101e60001109140088087800100178000000eb00c8
:101e70000200e00004003200920190000300e00044
:101e8000010032000280e800c04a88008180e8003a
:101e9000010078004f047800000006008000780000
:101ea0000000eb000100e0000500340001007800b4
:101eb000b9f90700e10f400001003a000000eb0013
:101ec0000000060000c0da000000060000c0da00d2
:101ed0000000060000c0da00000006003400f80030
:101ee0003200f8000203be00820270008502720018
:101ef00002f0a6008301e800a301880000f0a6001c
:101f00008100e800910188001500b2000c00320049
:101f1000104978000402e900150032006101410017
:101f2000020039003420ec0002002800610040006b
:101f3000f7ff39003220ec0000002800f4ff3700e2
:101f4000100978000482e9000900320062014100b2
:101f5000020039003420ec0002002800620040003a
:101f6000f7ff39003220ec0000002800f4ff3700b2
:101f70003200f9003400f9000601be00000006003e
:101f80000300e00007003200950180009101880005
:101f900010427800950188000402fb00820f520075
:101fa000110032008301e900950180009101880051
:101fb00010427800950188000404e0000800320017
:101fc000000278001000b00000026a004260af001a
:101fd00000f0a0000482d2000180b000e8ff3700ca
:101fe000000020000100200000000600839f680020
:101ff0000100e00002003d0060001000e0801800d9
:102000000300e00002003d0060011100e0811900c2
:10201000050007004f00e00002003b0060001000d8
:10202000e0801800000006006022b80006022000d0
:102030000000d0008180d2000482d2008582d200cc
:102040000000a0000202520083825a000300310007
:102050000202420083824a000000a1000603e90058
:10206000f3ff3a0000000600efff07000400be0087
:1020700000000600020ab900001bb9000200b80007
:10208000810042008100430000000600889fbe00de
:102090008a9fbe0030044200b0844a0030054b00e5
:1020a00090854b006000b1000898be000a90be0009
:1020b0000440e10005c8e10006d0e10007d8e100d6
:1020c00002003100680040001008e8004f05be0023
:1020d0004f04be0000000600889fbe008a9fbe001d
:1020e0003004be002005be000418540005985c00b2
:1020f00006185d0007985d00110020000440e10013
:1021000005c8e10006d0e10007d8e1000100390070
:102110008000eb00108810004f05be004f04be0089
:10212000000006001200fa00889fbe008a9fbe00d1
:102130008c9fbe00e0b79f00f1b79f0082bf9f0059
:1021400093bf9f000605be000404be000000eb0024
:10215000d0b79f00c0b79f00b0b79f00a0b79f0047
:1021600090b79f00000678005fb19700cfb097004e
:10217000820141003fb097000200e00004003d00f2
:10218000370007007e805700c0ff070003003700bc
:10219000330007007e805700cfff0700dfb69700af
:1021a0000d00e0000c0035006fb29700ffb2970001
:1021b0000fbb97009fbb970010002000010020007c
:1021c0006011b80000027200818272000203730085
:1021d000838373001b0007000c06e8000104200045
:1021e000810f5600e0ff3a000d00e00004003d00c2
:1021f0000802be000a03be007e805700a3ff07004e
:102200005fa897000000e00005003a001fb29700a9
:10221000afb297003fb39700cfb397000900070014
:102220006fb09700ffb097000fb997009fb9970064
:102230004f06be004f05be004f04be000080fa00ee
:10224000000006000100070000000600a4b79f0080
:10225000b5b79f00c6b79f00d7b79f000000060024
:102260004f09de0082817100b3b79f004f01de008d
:102270008180400082807000a1b79f008fb09700de
:102280004f09de00000040000200700090b79f0080
:102290007fa897004f01de0081804000828070009f
:1022a00081b79f000d0007004f3ade00000040009c
:1022b00004007000f0af9f00080007000402420015
:1022c00085824a0006034b0087834b00dfff07002f
:1022d0000802be000a03be00000006002fb29700ed
:1022e000bfb297004fb39700dfb39700000006001e
:1022f000881f780018002000881f780089ff0700d9
:102300008f87e9004f04780000000600801feb0073
:1023100084ff07008f87e90000000600889fbe0049
:102320008a9fbe00e00f5000e08f5800e00f590078
:10233000e08f59000c003d006044b8006055b800c3
:102340000000540081805c0002015d0083815d001b
:10235000180020001500070008003d0018000700c5
:102360000004eb00050037000004eb000f0007003d
:1023700002003d001200070018002000dcff0700eb
:102380000800e000060032006022b8006033b800a8
:102390000000520081805a0002015b0083815b00d3
:1023a0004f05be004f04be0000000600e00f5200c3
:1023b000e08f5a00e00f5b00e08f5b00000006003a
:1023c0006044b8006055b8000402540085825c0087
:1023d00006035d0087835d0000000600889fbe0045
:1023e0008a9fbe008c1f7800e00f5000e08f5800dd
:1023f000e00f5900e08f59000d003d006044b80027
:102400006055b8000000540081805c0002015d004e
:1024100083815d001c0020000820e10009a8e10084
:102420000ab0e1000bb8e1000d003d0008003700e4
:102430000006eb00e00f5200e08f5a00e00f5b0057
:10244000e08f5b0006003d006044b8006055b800b6
:102450000402540085825c0006035d0087835d00f2
:10246000aaff07000c00e000060032006022b8005e
:102470006033b8000000520081805a0002015b0006
:1024800083815b004f0678004f05be004f04be00fd
:042490000000060042
:020000040000fa
:102494005f5f00000508000000000000000000006d
:1024a4000000000000fa00000000000000e000004e
:1024b40000e0000000280000fe280000fe280000c4
:1024c40024540000fe54000048c40000c81000005a
:1024d400264600006c9200006a0400000a00000016
:1024e40010e00000c000000000380000448200003a
:1024f400000000008244000038000000543800004e
:10250400fe38000054100000107c00001010000081
:10251400000000000e0c000000100000101000006d
:102524001010000000000000060600000004000077
:1025340008100000204000007c8a000092a20000e5
:102544007c00000042fe0000020000004e920000e9
:10255400929200006284000082920000b2cc0000db
:102564001828000048fe000008e40000a2a20000b1
:10257400a29c00003c520000929200008c82000059
:102584008488000090e000006c92000092920000a9
:102594006c62000092920000947800000000000039
:1025a4002800000000000000022c000000000000d1
:1025b40000100000284400008228000028280000a1
:1025c4002828000000820000442800001040000079
:1025d400809a0000906000007c820000ba9a00009b
:1025e400723e000048880000483e0000fe92000051
:1025f400929200006c7c0000828200008244000001
:10260400fe820000828200007cfe000092920000a4
:1026140092820000fe90000090900000807c0000f8
:10262400828200008ace0000fe100000101000001c
:10263400fe00000082fe0000820000000402000090
:1026440082fc000080fe000010280000448200008c
:10265400fe0200000202000002fe000040380000fa
:1026640040fe0000fe20000010080000fe7c000078
:1026740082820000827c0000fe90000090900000a6
:10268400607c0000828a0000847a0000fe900000d2
:10269400989400006264000092920000924c000042
:1026a400c0800000fe800000c0fc000002020000a8
:1026b40002fc0000f804000002040000f8fc000022
:1026c400021c000002fc0000c628000010280000c4
:1026d400c6c00000201e000020c00000869a000032
:1026e40092b20000c2000000fe820000828200005c
:1026f4004020000010080000040000008282000056
:1027040082fe000020400000804000002002000003
:10271400020200000202000000c00000e0100000fd
:10272400000400002a2a00001c020000fe1400001d
:10273400222200001c1c000022220000221400009f
:102744001c22000022140000fe1c00002a2a0000a3
:102754002a180000001000007e90000040300000a5
:102764004a4a0000523c0000fe10000020200000f5
:102774001e00000022be000002000000040200004f
:1027840002bc000000fe000008140000220000004b
:1027940000820000fe020000003e0000201e000037
:1027a400201e00003e100000202000001e1c00001f
:1027b40022220000221c00003e18000024240000f5
:1027c4001818000024240000183e00003e100000e9
:1027d40020200000101200002a2a00002a240000f1
:1027e40020200000fc220000243c00000202000023
:1027f400043e00003804000002040000383c0000dd
:10280400020c0000023c0000221400000814000026
:10281400223200000a0a00000a3c000022260000be
:102824002a32000022000000106c00008200000028
:1028340000000000fe00000000000000826c0000a8
:102844001000000040800000402000004000000014
:10285400dff700005aff0000ff070000fa7f0000c6
:10286400fff70000bbf7000038ff00000000000085
:1028740059ff00001f0000005c89000045a1000012
:10288400d0dd0000f45c0000e07f000043d30000d2
:10289400eafb0000bd640000dbff0000a7d80000d5
:1028a400ff070000110000005104000021bc0000db
:1028b40055ad00002003000055ad0000adbd000083
:1028c400118800004553000060fc00009999000045
:1028d40000880000afec0000f18d0000f149000019
:1028e400692a0000692a00007a0600001a90000094
:1028f400b2f80000ff0500004d6b00004d6b0000b6
:102904009f1c000004b10000deff0000442400000e
:102914001ff80000fbde0000dfff0000a0fe000047
:1029240024dd00001084000000040000e5af000076
:1029340010840000fef7000056fb0000ebca000004
:1029440010480000feff000031f700003fe70000e0
:102954009eff0000e07f0000d9ff0000dcae000015
:1029640010f40000ffe70000daff00009ad6000030
:10297400729700009ad60000b8fd00000ffd000019
:10298400952500007f8600005374000053740000f6
:102994003bb60000fcff0000e007000066360000c4
:1029a4009cff00001ff80000008000007566000016
:1029b40019000000baba00009b9300008e3d00008d
:1029c4005d7b0000d3070000994e0000b0c00000fa
:1029d400ce180000fff700003cff000036ff0000a7
:1029e400f5fe000010000000bcff000000840000a1
:1029f400646c000020fd000020fa00009adb000057
:102a040055ef0000d39f00007daf000092db000073
:102a14007aff0000d7fe000027cc000019fe00005a
:102a24001bdd00001cb700001080000000f800004f
:102a340071bc00005c430000228a00000efc000010
:102a44002cf500004a2c0000bdff000085a2000008
:102a540018c600007d860000d96a000012740000c8
:102a640012740000dfff0000ef07000016440000ae
:102a7400b1d5000010040000fbdd000008fb0000dd
:102a84001a4700001dec0000f6f60000ffff0000ee
:102a9400bef70000e0ff0000669e00002530000045
:102aa400326400002f000000253000003264000072
:102ab4000025000030320000643a000000440000a9
:102ac40069730000706c000061790000204d000003
:102ad4006f6400006500000053650000742000006e
:102ae400546900006d650000005300006574000027
:102af400204400006174000065000000536500007c
:102b040074200000416c0000617200006d00000040
:102b1400200100000000000000000000200100006f
:082b24000f000000000000009a
:020000040000fa
:102b2c000400fa0020479800314798002e4090008e
:102b3c008080fb003e4090000000fb00008f4000b6
:102b4c00a0242900104078000080fb009e0f50004c
:102b5c0003003d00a0242900104078000800370035
:102b6c001e0078000000e00002003d000040eb0079
:102b7c0003003700be4090002e40900000c0400083
:102b8c000080fa00000006000200fa00004f7800f6
:102b9c0011479800a0242900104078009e4078002e
:102bac0080cf500005003e00b02429001040780072
:102bbc009e40900080cf5000020036000000eb00d9
:102bcc0007003700f1c5b3001e4078000507070069
:102bdc00f1c5b3001e409000ed0607002907070061
:102bec000080fa00000006000400fa00004f780094
:102bfc001147980012079800a02429001040780073
:102c0c009e40780080cf50000e003e00b02429007a
:102c1c00104078009e40900080cf50000b003e008a
:102c2c00f1c5b3001e407800ee060700f1c5b300f5
:102c3c001e409000d60607001e0090002b070700d0
:102c4c000300370000000000010037000000000006
:102c5c000080fa00000006000e00fa00004f9800f9
:102c6c00114f9800224f9800630798000e4890006f
:102c7c008080fb002e4890000080fb00808050007c
:102c8c00a0242900104078000080fb00808f5000a9
:102c9c0070003c001e4890008080fb002e48900085
:102cac000080fb0080805000b02429001040780088
:102cbc000080fb00808f500068003c002e48900084
:102ccc000004e00001003a0010c0b300204f98004f
:102cdc002e489000804078000e48900090ff07002e
:102cec00204798002e4890000040ea008040780071
:102cfc000e4890008aff0700304798002e4890003d
:102d0c00804078001e48900085ff070040479800df
:102d1c002e4890000040ea00804078001e48900049
:102d2c007fff070050479800be409000014f78008d
:102d3c00430037000e4890009e4f500003003900ae
:102d4c000e4890001e405000030037009e40780053
:102d5c000e48900000c0500060479800de40900084
:102d6c0011479800310037009e4890001e4090009b
:102d7c0080cf5000040039009e4890001e40900007
:102d8c0000c05000030037009e4090001e48900089
:102d9c0000c05000704798007e4090008080fb007f
:102dac006e4090000080fb00808040002e48900018
:102dbc000080fb00808f5000150034007e40900096
:102dcc008080fb007e4090000080fb000088b900f2
:102ddc00000178006e4090008080fb006e409000f7
:102dec000080fb000088b900000078000001410061
:102dfc002e4890008080fb002e4890000080fb0045
:102e0c000088b90000007800800f510004003c00dd
:102e1c006e0190009e4090001e40780072ff0700eb
:102e2c001e4090000040e800104798009e40900023
:102e3c004e40900080cf5000cbff39001e4fe80071
:102e4c002e4090009e40780080cf5000b9ff390092
:102e5c0003003700000000000100370000000000f4
:102e6c000080fa00000006000c00fa006047980091
:102e7c0071479800024f9800530798000040eb00f0
:102e8c00104798000040eb00204798000040eb00f2
:102e9c00304798000000eb00200798000e48900087
:102eac000004e00001003a0010c0b300004f98008d
:102ebc000e4890000040e800004f78000040eb0006
:102ecc00104798000040eb00204798000000eb00f2
:102edc0020079800670037001e4090000000fb00a0
:102eec00000040000000e800ae00900000804000b0
:102efc00200798001e4090000040e8001047980002
:102f0c002e0090000000e0005a0035004c00370005
:102f1c00ae4090003147980043003700ae4090001f
:102f2c007e40900080c040003e4190006e4090007a
:102f3c00004041005e0190002bff07002e409000e6
:102f4c00fe40900080c050003e4190006e409000ca
:102f5c00004041005e01900023ff0700ae4090004e
:102f6c007e40900080c040003e4090006e4190003a
:102f7c00004051005e0190001bff07002e409000a6
:102f8c00fe40900080c050003e4090006e4190008a
:102f9c00004051005e01900013ff0700be409000fe
:102fac007e40900080c040002e4190006e4090000a
:102fbc00004041005e0190000bff07003e40900076
:102fcc00fe40900080c050002e4190006e4090005a
:102fdc00004041005e01900003ff0700be409000de
:102fec007e40900080c040002e4090006e419000ca
:102ffc00004051005e019000fbfe07003e40900037
:10300c00fe40900080c050002e4090006e41900019
:10301c00004051005e019000f3fe07003e4090001e
:10302c000040e800304798003e4090009e4f500012
:10303c00baff35002e4090000040e8002047980071
:10304c00ae4090001e40900080cf5000b0ff350085
:10305c009e00fb00e0ff2f000088b9000000780004
:10306c000000e800ae0090000080400020079800af
:10307c001e4fe9001e4090009e40780080cf50000b
:10308c0095ff3d000080fa00000006000a00fa00df
:10309c004047980051479800624798007347980042
:1030ac00440798007e4090000080fb000000d10097
:1030bc0000407800ee40900000c04000604798004f
:1030cc0064003700ee409000014f78000040eb00a8
:1030dc00104798000000eb001007980056003700ce
:1030ec009e4090005e40900080c040001e417800e1
:1030fc004e409000004041004e019000bafe070087
:10310c001e409000de40900080c050001e417800b0
:10311c004e409000004041004e019000b2fe07006e
:10312c009e4090005e40900080c040001e407800a1
:10313c004e419000004051004e019000aafe070045
:10314c001e409000de40900080c050001e40780071
:10315c004e419000004051004e019000a2fe07002d
:10316c009e4078005e40900080c040001e41900060
:10317c004e409000004041004e0190009afe070026
:10318c001e407800de40900080c050001e41900030
:10319c004e409000004041004e01900092fe07000e
:1031ac009e4078005e40900080c040001e40900021
:1031bc004e419000004051004e0190008afe0700e5
:1031cc001e407800de40900080c050001e409000f1
:1031dc004e419000004051004e01900082fe0700cd
:1031ec001e4090000000fb00000040000000e800c2
:1031fc009e00900000804000100798001e40900038
:10320c000040e800104798001e0090000000e0000d
:10321c00090035009e00fb00e0ff2f000088b9007c
:10322c00000078000000e8009e0090000080400044
:10323c00100798001e4fe9001e4090009e40780039
:10324c0080cf5000a6ff3d006e4090000040e9008a
:10325c00604798007e4090000080fb000000ea0070
:10326c004f00de0000407800fe4090008140e900f5
:10327c00714798000004e00092ff3a000080fa00c9
:10328c00000006000e00fa00604798007147980095
:10329c00024f9800134f9800244f98006507980030
:1032ac002e4890000004e00001003a0010c0b3006a
:1032bc00204f98008e4890006e40900000c0500047
:1032cc00304798009e4890007e40900000c050000f
:1032dc0040479800ce4090003e40900000c0500007
:1032ec0020479800fe40900011479800ee40900057
:1032fc00014f78002c0037009e00fb00a024290011
:10330c00104078000080fb00808f500017003c00bc
:10331c001e4090008000fb00b02429001040780073
:10332c000080fb00808f500010003c002e48900065
:10333c00e14f500005003e009e4090001e4078007a
:10334c006e01900028fe0700080037002e48900000
:10335c000080fb000000d100004178009e409000ee
:10336c001e407800ee019000bffe07002e4090003a
:10337c000004e000070035001e4090000040e8000b
:10338c0010479800ae4090003e40900000c05000a6
:10339c0020479800ae4090004e40900000c0400086
:1033ac00204798001e4fe8009e00fb000e4890003e
:1033bc000080fb00808f5000cfff35000080fa00aa
:1033cc00000006000800fa002047980031479800da
:1033dc00424798005347980034079800ce4090001d
:1033ec002e409000ff040700de4090003e4090000d
:1033fc00e7040700ae409000014f78001000370042
:10340c00be40900011479800050037003e00900028
:10341c00360507001e4090000040e8001047980059
:10342c001e4090008080fb005e4090000080fb00fe
:10343c000000e800808f5000f4ff35001e4fe800bc
:10344c009e80fb004e4090000080fb000000e800d6
:10345c00808f5000eaff35000080fa000000060063
:10346c001000fa00004f9800114f9800224f98005e
:10347c00334f9800444f9800750798004e489000c1
:10348c000080fb0001fe2f0080804000c02429003a
:10349c00104078000080fb000088b9000000780024
:1034ac0080007800e0242900008f40000000eb0031
:1034bc00100798003c0037001e0078009040780000
:1034cc00614798001e0fe800d024290010407800b6
:1034dc008080fb003e4890000080fb000088b90013
:1034ec000000780020079800270037006e409000fd
:1034fc000080fb0061006000004078000004e000e8
:10350c00180032002e009000804078001e48900079
:10351c0080c040003e48900000c040008041e9005f
:10352c001e009000804078000e48900080c0400043
:10353c002e48900000c040000041e9002e00900091
:10354c00804078001e48900080c040001e00900013
:10355c00004278000e489000004042007e0290002d
:10356c0098ff07006e4090000080fb000000d10027
:10357c00604798003e4890000080fb00ae00900031
:10358c0000805000200798002e0090000000e00002
:10359c00d6ff3a002e4890000080fb009e00900061
:1035ac000080400010079800c024290010407800cb
:1035bc008080fb002e4890000080fb000088b90042
:1035cc0000007800800078001e009000808f500072
:1035dc00b9ff3e000080fa00000006000800fa0067
:1035ec00004f780011479800224798003347980005
:1035fc002407980035079800150037002e0090001e
:10360c0010407800ae0090008100e800210798007f
:10361c00be02900000427800be4190002e41900006
:10362c009e4090001e4078008dff0700c0242900aa
:10363c0010407800ae4090008180fb000088b900fb
:10364c0000007800004078001e404000004fe80069
:10365c002e009000104078000004e000e7ff3a00d4
:10366c000080fa00000006001400fa00204f9800b9
:10367c00314f980062079800634f9800744f980080
:10368c00050f98002657980000c2b30060479800b9
:10369c006e4890000004e000020032006e4890007a
:1036ac000100370010c0b300604f98007e489000b6
:1036bc000004e000020032007e4890000100370058
:1036cc0010c0b300704f98000040eb00004f780022
:1036dc00510037000e0890001001be001207980030
:1036ec00230798000e08900064004000000f98001b
:1036fc001e407800fe4890008180fb000088b900d5
:10370c0000007800804078003e48900000c04000e7
:10371c00704798000040eb001047980039003700c4
:10372c001e019000ae01900010002000010020004e
:10373c000202780003017800800178000100780013
:10374c0003026200000061008000eb00c000dd009d
:10375c00000020000001be006120b80000017100d3
:10376c0081817100e00f5100e08f59001c003a007c
:10377c006e4090008080fb001e4090000080fb009b
:10378c000080500000407800ee4890008180fb00e3
:10379c000088b90000007800804078002e48900026
:1037ac0000c04000004f9800fe4090007e48900002
:1037bc0000c040008040e9000e4990006e48900027
:1037cc00004041000040e9006e0290008141780009
:1037dc0000417800fe4090000e489000f9fe070072
:1037ec001e009000ae0090008100d1000080d3003c
:1037fc0010079800210798001e4090000040e80038
:10380c00104798009e4090006e40900080cf500072
:10381c00c3ff39001e4fe8002e5090009e407800e8
:10382c0080cf5000abff39000080fa00000006008a
:10383c001400fa0000408000801f78000055290019
:10384c00801f78000e00780096f30700e48757007d
:10385c00114080006a004700811f780061552900e3
:10386c00811f78008ff30700e48757006a00470038
:10387c00800078000e00780066f30700c1a1840078
:10388c000e007800810278000002780013c0b300ab
:10389c0012c0b30001c5b300f0c3b3004fff070063
:1038ac000080fa00000006000000fa00a0002000d2
:1038bc00004088008000200010408800800120001b
:1038cc00604a880020012000704a880040012000d6
:1038dc00804a88000080fa00000006001e00fa00f2
:1038ec00614a80006000200000017800110009008e
:1038fc008200d8008000fd000000e00034003a0097
:10390c00804a8000801f7800b0552900801f780005
:10391c000e00780063f30700e4875700714a8000bb
:10392c006a004700811f7800b1552900811f78007b
:10393c005cf30700e4875700614a8000740047007d
:10394c00811f780061552900811f780055f307000d
:10395c00e48757006a004700800078000e0078006a
:10396c002cf3070074004700800078000e007800ec
:10397c0028f3070007c8bf000004e0000a0032006b
:10398c00c1a184000e00780081027800000278004a
:10399c0013c0b30012c0b30051c0b300d0c2b30007
:1039ac000eff070024003700c1a184000e00780030
:1039bc00810278000002780023c0b30022c0b3005b
:1039cc0081c2b30040c0b30004ff07001a003700e7
:1039dc00614a8000500020000001780011000900ad
:1039ec008200d8008000fd000000e00012003a00c8
:1039fc0007c8bf000004e0000800320040aa8400a1
:103a0c000002780093c1b300f2c5b3008040eb0014
:103a1c00d0c2b3006bfe07000700370040aa840039
:103a2c000002780073c3b300a2c5b30081c2b30017
:103a3c000040eb0063fe0700614a8000b0032000e9
:103a4c00808f50000f003a000000eb00604a8800a5
:103a5c00704a80000000e800704a8800714a8000bb
:103a6c00c0032000808f500009003a000000eb00da
:103a7c00704a8800804a80000000e800804a880074
:103a8c0003003700604a80000000e800604a8800ac
:103a9c000080fa00000006000000fa008000200000
:103aac00603a88004627a800c01220007305070062
:103abc004627a90000000000303a80006100600039
:103acc000000e000fcff3200903880000080fa001b
:103adc00000006002000fa00700f98007e0890008d
:103aec0020009000801f7800b0552900801f7800be
:103afc000e007800ebf20700e48757007e08900078
:103b0c00900090006a004700811f7800b155290091
:103b1c00811f7800e3f20700e48757007e089000cd
:103b2c009000780074004700811f780061552900cf
:103b3c00811f7800dbf20700e48757006a0047001a
:103b4c00800078000e007800b2f207007400470085
:103b5c00800078000e007800aef207000080fa00ba
:103b6c00000006001400fa0000408000801f78005e
:103b7c0000552900801f78000e007800c9f207005c
:103b8c00e4875700114080006a004700811f7800cd
:103b9c0061552900811f7800c2f20700e4875700a5
:103bac006a004700800078000e00780099f2070048
:103bbc000080fa00000006000c00fa005000200003
:103bcc00000f780081030700c0942000c1ff07009c
:103bdc00800078000e80e80098f20700c1a18400f4
:103bec000e80e800810278000002780023c0b30048
:103bfc0022c0b30081c2b30040c0b30077fe0700ff
:103c0c00c1a184001e007800004078008102780079
:103c1c0014c0b300c3c3b30042c1b300c1c3b300eb
:103c2c0098fd070040003700dd0107000000e000b0
:103c3c0025003200e01f22000000010042aa84008f
:103c4c001e00780000407800ef4040001e00780015
:103c5c00004078008202780014c0b300c3c3b300e4
:103c6c0001417800c1c3b30086fd0700b0042000f9
:103c7c009e007800808f500003003200310220003b
:103c8c001e8040000100370050002000000f78001b
:103c9c00c2a184001e00780000407800ef40400074
:103cac001e007800004078008202780014c0b30037
:103cbc00c3c3b30001417800c1c3b30071fd070059
:103ccc00e01f2200000001001e007800810220008d
:103cdc00810f50000a003200b1042000810f500007
:103cec000c003200e50f50000f003a00c10220001a
:103cfc001e00780083000700b04a88000a003700d5
:103d0c00110120001e0078007e000700a04a8800e8
:103d1c0005003700110120001e0078007900070013
:103d2c00904a880000000000a70107000000e00096
:103d3c00bdff3200c02022000000010020952000b1
:103d4c0064ff0700800078000e80e8003bf207005b
:103d5c00c0a184008002780034c6b30023c0b30035
:103d6c0022c0b30011c0b30010c0b300bcfd0700eb
:103d7c000080fa00000006000c00fa005000200041
:103d8c00000f780011030700c094200051ff0700ba
:103d9c00800078000e80e80028f20700c1a18400a2
:103dac000e80e800810278000002780023c0b30086
:103dbc0022c0b30081c2b30040c0b30007fe0700ad
:103dcc00c1a184001e0078000040780081027800b8
:103ddc0014c0b300c3c3b30042c1b300c1c3b3002a
:103dec0028fd0700400037006d0107000000e000cf
:103dfc0025003200e01f22000000010042aa8400ce
:103e0c001e00780000407800ef4040001e00780053
:103e1c00004078008202780014c0b300c3c3b30022
:103e2c0001417800c1c3b30016fd0700b0042000a7
:103e3c009e007800808f5000030032003102200079
:103e4c001e8040000100370050002000000f780059
:103e5c00c2a184001e00780000407800ef404000b2
:103e6c001e007800004078008202780014c0b30075
:103e7c00c3c3b30001417800c1c3b30001fd070007
:103e8c00e01f2200000001001e00780081022000cb
:103e9c00810f50000a003200b1042000810f500045
:103eac000c003200e50f50000f003a00c102200058
:103ebc001e00780013000700804a88000a003700b3
:103ecc00110120001e0078000e000700704a8800c7
:103edc0005003700110120001e00780009000700c2
:103eec00604a880000000000370107000000e00075
:103efc00bdff3200c0202200000001000080fa004b
:103f0c00000006000a00fa003007980041079800ec
:103f1c00e1fe0700ce0090000101780011000900bd
:103f2c000200d800000f780042aa84003e009000e6
:103f3c0000407800f44040003e00900000407800c3
:103f4c00654050000202780073c3b3000141780051
:103f5c0081c2b3001bfd07000e80e8009e1f780095
:103f6c0061552900811f7800cef10700e4875700c6
:103f7c00c2a184008e80e800ce019000c002200017
:103f8c00808f5100040032003e0090000040780009
:103f9c00644050000100370040c0b300820278003a
:103fac000102780023c0b30022c0b30081c2b30069
:103fbc008afd07001e0078000080fa000000060051
:103fcc000c00fa0040012000000f78007f0207006f
:103fdc00e4fe0700800078000e80e80097f10700ef
:103fec00c2a184008e80e8001e007800004078009a
:103ffc00820278000102780023c0b30022c0b30013
:10400c0081c2b30075fd0700c2a184001e007800b8
:10401c0000407800f44040001e007800004078001a
:10402c008202780014c0b300c3c3b300014178000e
:10403c00c1c3b30093fc070039003700d800070058
:10404c000000e00025003200e01f2200000001000b
:10405c0042aa84001e00780000407800f440400022
:10406c001e007800004078008202780014c0b30073
:10407c00c3c3b30001417800c1c3b30081fc070086
:10408c00700320009e007800808f500003003200e7
:10409c00310220001e80400001003700400120004a
:1040ac00000f7800c2a184001e0078000040780048
:1040bc00ef4040001e00780000407800820278003b
:1040cc0014c0b300c3c3b30001417800c1c3b30033
:1040dc006cfc0700e01f2200000001001e007800ad
:1040ec00f40f50000400320071032000810f5000c7
:1040fc00060032000a003700210220001e00780062
:10410c0080ff070010408800050037005105200093
:10411c001e0078007bff07000040880000000000b4
:10412c00a90007000000e000c4ff3200c0202200fc
:10413c00000001008bfe0700800078000e80e80074
:10414c003ef10700c1a184000e80e80081027800d6
:10415c000002780013c0b30012c0b30001c5b30055
:10416c00f0c3b3001dfd0700c020220000000100b9
:10417c000080fa00000006000200fa0010c0b30034
:10418c0007e8b7007c003700e0012000000f780042
:10419c0040aa84000002780003c5b300f2c5b30046
:1041ac0041c1b3000040eb0086fc0700c1a18400b4
:1041bc0010562900810278000002780013c0b30069
:1041cc0012c0b30091c1b300a0c0b30003fd07003f
:1041dc00c1a18400e0562900810278000002780019
:1041ec0013c0b30012c0b30031c2b300a0c0b300ff
:1041fc00fafc0700c1a184007057290081027800e5
:10420c000002780013c0b30012c0b300d1c2b300d7
:10421c00a0c0b300f1fc0700c1a184000058290024
:10422c00810278000002780013c0b30012c0b30002
:10423c0071c3b300a0c0b300e8fc0700c1a18400a7
:10424c001e007800004078008101780042c0b30065
:10425c008040780040c0b3007ffa07002000370090
:10426c004f0007000000e0001d003200e01f22009c
:10427c000000010041aa84001e0078000040780074
:10428c008101780042c0b3008040780040c0b30088
:10429c0071fa0700c00320009e007800808f500048
:1042ac00030032009e0078006a8040000100370055
:1042bc00e0012000000f7800c1a184001e007800ee
:1042cc00004078008101780042c0b3008040780043
:1042dc0040c0b30060fa0700e01f2200000001009c
:1042ec00390007000000e000ddff3200c020220092
:1042fc0000000100c0202200000001001e00780018
:10430c0081022000810f5000150032002103200093
:10431c00810f500014003200fe0f500014003a00c0
:10432c0040aa84000002780093c1b300f2c5b30028
:10433c008040eb00d0c2b30022fc070040aa8400ee
:10434c000002780003c5b300f2c5b30041c1b3004d
:10435c000040eb001bfc07000768ef00060037006d
:10436c0085fe07000400370015ff07000200370028
:10437c0011fe070000000000130007000000e00021
:10438c0003003a0007c8bf000004e0007eff3a00bb
:10439c00c0202200000001000080fa00000006008e
:1043ac000000fa00213380000080200000806000b3
:1043bc0000f0a7000000ea000000e9004f00de005a
:1043cc000080fa00000006000000fa002133800093
:1043dc00000021000080600000f0a7000000ea004f
:1043ec000000e9004f00de000080fa00000006002b
:1043fc000000fa006706a800400620001f03070013
:10440c006706a9000080fa00000006000000fa0010
:10441c006726a800800c2000180307006726a90057
:10442c000080fa00000006000000fa009502070068
:10443c0040aa840082010700640107001afd0700ee
:10444c00fbfc0700c2a18400f09020001040780013
:10445c0080407800e09020001040780082027800c4
:10446c0024c0b300814178000041780001c3b3003f
:10447c0000c3b30083fb07000300370000000000fb
:10448c000100370000000000c5ff07000000e0003d
:10449c00faff3200d6ff070020408000e10f5000e9
:1044ac00f8ff360034ff0700f7ff37000200fa0070
:1044bc00000f7800c00520009e007800808f50000f
:1044cc0004003200d00520009e007800808f500040
:1044dc0009003a00c00520009e007800808f500033
:1044ec0002003a0010c0b3000100370020c0b30036
:1044fc0008e8b700010037000868ef000080fa00f8
:10450c00000006000200fa00004f780011479800e6
:10451c00090107000004a2000004e00002003200c0
:10452c000080eb000c0037001e407800730207007f
:10453c00004f78001e409000700207001047980052
:10454c005a0207001e80fb00c800dd001e409000d0
:10455c000080fb00010070000080fa0000000600e3
:10456c000200fa0020c3b300004f780012c0b30061
:10457c008e007800000a20006600070000c2b3001d
:10458c00004f780012c0b3008e007800100a200093
:10459c00600007000080fa00000006000000fa002e
:1045ac000041eb008000eb00c00520005900070023
:1045bc008f26a9008e66a8000080fa000000060075
:1045cc000000fa000041eb008000eb00d005200059
:1045dc00500007008f26a9008e66a8000080fa0004
:1045ec00000006000800fa0000017800310798006e
:1045fc003e0090004800de00004f78003e00900026
:10460c00104798001e80fb004300de00004078003d
:10461c00204798001e80fb00670060004300dd000f
:10462c00804078001e4090000080fb004500de00ba
:10463c000040780000c07000304798001e40900089
:10464c007f406000404798000e80e80082007800b0
:10465c00904878008100e8000000e800904878005d
:10466c008100e8000000e800904878008100e80034
:10467c000000e800020078000080fa00000006004c
:10468c000600fa00204798003147980042479800ee
:10469c002e4090007f406000204798003e409000e4
:1046ac00f043b200304798004e4090007f406000cd
:1046bc00404798002e4090000080fb004300dd0036
:1046cc00804078003e4090000080fb004300de00fc
:1046dc000040780000c07000004f78003e40900011
:1046ec000080fb004500dd00804078004e409000cb
:1046fc0000c07000104798001e80fb00c800dd0051
:10470c001e4090000080fb00010070000080fa0049
:10471c00000006000600fa00000f78001107980050
:10472c0042479800840007000004a2000004e00047
:10473c0014003a008f26a9008e66a9001e0078008e
:10474c0000407800ed0107004e4090000004e000ae
:10475c00070032008e66a8004e4090000080fb00df
:10476c00800078001e0090000a0207008e66a900e7
:10477c008f26a800cd0107001e0078004bff070014
:10478c0001003700000000000080fa000000060065
:10479c000400fa0020479800314798002e40900002
:1047ac00f1c5b300814f500001003600f0c5b300d5
:1047bc00004f78003e409000f1c5b300814f50008f
:1047cc0001003600f0c5b3001047980022c0b300ba
:1047dc008e00780050072000ceff07000080fa0002
:1047ec00000006000400fa002047980031479800aa
:1047fc002e409000f1c5b300814f500001003600ef
:10480c00f0c5b300204798003e409000f1c5b300be
:10481c00814f500001003600f0c5b30030479800be
:10482c002e40900070404000004f78003e409000b9
:10483c00704040001047980022c0b3008e007800f2
:10484c0050012000b3ff07000080fa0000000600b2
:10485c000200fa00004f78001e4078000004e000cf
:10486c0002003200e00a200001003700f00a2000ac
:10487c000041eb008000eb00a6ff07000080fa006f
:10488c00000006000000fa0008c8bf00e24f50000c
:10489c00010032004aff070008c8bf00e24f500079
:1048ac00020032000080eb000300370080c0eb00f8
:1048bc0000c0eb0013ff07000080fa0000000600a8
:1048cc000400fa00004f7800114798002247980026
:1048dc002e4190009e4090001e40780068ff07001b
:1048ec00020007000080fa00000006000200fa0037
:1048fc00000f780008c8bf00e14f500001003200e3
:10490c0026ff070008c8bf00e14f500007003a001f
:10491c001e007800804078001e0078004800de0001
:10492c0000407800f7fe070001003700000000008f
:10493c000080fa00000006000000fa005f0107008a
:10494c000080fa00000006000000fa0063a6a9002f
:10495c0077a6a90077e6a9008a26a9008a66a9008d
:10496c008b06a9008b26a9008f06a90067a6a800b4
:10497c008e26a90010002000c001070067a6a90020
:10498c0020002000ce01070067a6a8008f06a80013
:10499c0010002000b90107000040eb00acff07003d
:1049ac00800c2000b5010700f1c5b3000040eb00fe
:1049bc008cff0700f1c5b3000040eb0074ff07004b
:1049cc00e7fe07000080fa00000006000200fa0073
:1049dc0001c6b3000040eb0082ff070001c6b30024
:1049ec000040eb006aff07000040eb00004f78002e
:1049fc000d0037000040eb00104798000500370011
:104a0c0050408000b9ff07001e4090000040e800b5
:104a1c00104798009e409000f0c5b30080cf500026
:104a2c00f7ff36001e4fe800f0c5b3009e4078003b
:104a3c0080cf5000efff36000080fa000000060027
:104a4c000200fa00000f78009e00780051408800a8
:104a5c00deff07000080fa00000006000000fa00ec
:0c4a6c00504080000080fa0000000600ae
:020000040000fa
:104a78000808000004000000800000000c08000086
:104a88000200000080000000980800007800000084
:104a98008200000043004700014a02004f03510012
:104aa8000452050054065800095b0c005c0e5d00ba
:104ab800105f12006015610019621d00622062001b
:104ac80023612700602b5f002d5d2f005c325900a9
:104ad80035553800543a52003a4f3c004c3d490095
:104ae8003e463f00433f40003f3c3e00393d3600d4
:104af8003c333a002f382d00362b34002932280059
:104b08002f262c00252924002623230023202300d8
:104b18001d241a002516260012281000290d2c0025
:104b28000a2f070031063300053404003603390024
:104b3800023d01004c0900000c000000800000004c
:104b48000008000008000000800000000e080000b7
:104b5800020000008200000014000000320900007a
:104b68001a00000082000000686a6c00747a4c0029
:104b7800000001000002000004000800001000000e
:104b8800000020002b2d2300300000001009000039
:104b9800220000008200000030313200333435003a
:104ba800363738003941420043444500460030005a
:104bb80031323300343536003738390061626300ea
:104bc800646566000000000010080000880000000e
:104bd8008200000001000000003608003708360097
:104be80008360800360836000826080000000000cd
:104bf80000000000000000000000000000000000ad
:104c080000000000000000000002080001015e0032
:104c1800085f08005e085e00085e08005e084e0037
:104c28000800000000000000000000000000000074
:104c3800000000000000000000000000000002006a
:104c48000802020086088700088608008608860091
:104c58000886080076080000000000000000000038
:104c6800000000000000000000000000000000003c
:104c7800000000001008380008600800000000006c
:104c88000000000000000000000000005c090000b7
:104c980002000000800000005e0900000200000021
:104ca8008200000004000000580900000400000011
:104cb800800000006009000002000000820000007f
:104cc80001000000620900000200000080000000ee
:044cd80000000000d8
:020000040000fa
:104cdc000000fa006626ef007a26ef008e26ef0021
:104cec000080eb00103388000080eb00b0338800ac
:104cfc000080eb00503488007426ef008826ef000b
:104d0c009c26ef007226ef008626ef009a26ef0015
:104d1c006826ef007c26ef009026ef00010880004b
:104d2c00f00b200000816000600420007105200061
:104d3c00031020008049780081497800824978006e
:104d4c00113f800000f82f00008060007000b3005d
:104d5c00103f8800113f8000f00f28000080600099
:104d6c0000b0a000103f8800c13d800000fc2f0067
:104d7c0000806000d000b300c03d880000088000b7
:104d8c00000178000260a000600420007105200082
:104d9c00031020008049780081497800824978000e
:104dac000080fa00000006000000fa009206a8003d
:104dbc00413a8000f0ff230000806000403a8800f8
:104dcc0049a7a90000c0eb004ae7b700313a8000c0
:104ddc00f0f02f0000806000303a8800513a8000db
:104dec00f00f2e000080600000c0a000503a880038
:104dfc00313a8000f0cf2f0000806000303a8800fc
:104e0c00413a800030f82f0000806000403a880062
:104e1c004747a90047e7a8000080fa0000000600f9
:104e2c000000fa009421ef009021ef008860a900a7
:104e3c009860a80095e1a80095a1a800a10c80009d
:104e4c00f0fc2f00008060000050a000a00c880037
:104e5c009421a9000080fa00000006000000fa006e
:104e6c006366a8006386a8000080fa0000000600b4
:104e7c000000fa006306a9006326a9000080fa006e
:104e8c00000006000000fa0091ff0700a6000700d2
:104e9c00adfe0700c4ff0700e1ff0700efff0700ae
:104eac00f3ff07000080fa00000006000000fa0083
:104ebc00f5e3a9000080fa00000006000000fa00eb
:104ecc00a11f800000002800008060000000e000ae
:104edc0007003a0000122000a01f88000424ef00f5
:104eec0077e6a900f5e3a80010c0b3000100370075
:104efc000040eb000080fa00000006000200fa00ff
:104f0c00004f78001e80fb0000208800000000008d
:104f1c00e01f8000610060000000e000fcff320038
:104f2c0000208000004078000080fa00000006009d
:104f3c000600fa0010079800210798009e009000c8
:104f4c00010f7800060037001e0078001040780032
:104f5c00eaff07009e007800804878001e0fe800ea
:104f6c002e00900000f0a7000000ea000000ea000c
:104f7c004f00de0000407800ae0090008100e90098
:104f8c00210798000004e000efff3a000080fa00cf
:104f9c00000006000600fa00100798002107980090
:104fac009e009000010f7800040037001e0078006e
:104fbc00104078001e0fe800d0ff07002e00900074
:104fcc0000f0a7000000ea000000ea004f00de003d
:104fdc0000407800ae0090008100e90021079800a5
:104fec000004e000f1ff3a000080fa000000060027
:104ffc000600fa0010079800210798009e00900008
:10500c00010f7800050037000040eb00bbff0700e4
:10501c009e007800804878001e0fe8002e0090005b
:10502c0000f0a7000000ea000000ea004f00de00dc
:10503c0000407800ae0090008100e9002107980044
:10504c000004e000f0ff3a000080fa0000000600c7
:10505c000200fa00004f78001e80fb000020880040
:10506c000080fa00000006000000fa00002080001a
:10507c00004078000080fa00000006000200fa00f0
:10508c00000f78000300370000fa20000100200018
:10509c00480007001e00780000f0a7000000ea009e
:1050ac000000ea004f00de00004078001e0fe9000f
:1050bc000004e000f4ff3a000080fa000000060053
:1050cc000200fa00000f78000500370000082000ed
:1050dc00010020003700070001fe2f001e8f40004a
:1050ec001e007800ff0f5000f8ff3e000300370051
:1050fc0040002000010020002e0007001e00780058
:10510c0000f0a7000000ea000000ea004f00de00fb
:10511c00004078001e0fe9000004e000f4ff3a00a4
:10512c000080fa00000006000000fa0000002300d6
:10513c00100888000621ef006821ef006a21ef00bb
:10514c000821ef0000702000500888000c21ef00af
:10515c000e21ef007821ef007a21ef007c21ef0087
:10516c007e21ef008021ef008221ef008421ef00ef
:10517c008621ef000001eb0080072000a109200030
:10518c00131020008049780081497800824978000a
:10519c000001eb00600420007105200003102000ca
:1051ac008049780081497800824978000080fa00b3
:0451bc0000000600e9
:020000040000fa
:1051c000f03fb1000180b10006003500ee03090098
:1051d00000000000403fb1000180b100fbff3d0036
:1051e0001000b000203fb000020035000080090030
:0851f0000000000000000600b1
:020000040000fa
:020000040005f5
:045e0000ffffff00a1
:020000040000fa
:020000040005f5
:045e2000ffffff0081
:020000040000fa
:020000040005f5
:045e300078ffff00f8
:020000040000fa
:020000040005f5
:045e38004bffff001d
:020000040000fa
:020000040005f5
:045e40009fffff00c1
:020000040000fa
:020000040005f5
:045e4800ffffff0059
:020000040000fa
:020000040005f5
:045e5000deffff0072
:020000040000fa
:020000040005f5
:045e5800ffffff0049
:00000001FF
